:020000040800F2
:10000000B00E002019310008D5060008D7060008F8
:10001000DB060008DF060008E30600080000000019
:10002000000000000000000000000000E7060008DB
:10003000E906000800000000EB060008ED060008D5
:100040003331000833310008333100083331000800
:1000500033310008333100083331000833310008F0
:1000600033310008333100083331000833310008E0
:1000700033310008333100083331000833310008D0
:1000800033310008333100083331000833310008C0
:1000900033310008333100083331000833310008B0
:1000A00033310008333100083331000833310008A0
:1000B0003331000833310008333100083331000890
:1000C0003331000833310008333100083331000880
:1000D000333100083D300008333100083331000867
:1000E0003331000833310008333100083331000860
:1000F0003331000833310008333100083331000850
:10010000333100083331000833310008333100083F
:10011000333100083331000833310008333100082F
:10012000333100083331000833310008333100081F
:1001300000F002F800F044F80AA090E8000C8244B5
:100140008344AAF10107DA4501D100F039F8AFF292
:10015000090EBAE80F0013F0010F18BFFB1A43F0A5
:10016000010318476C5500008C550000103A24BF5D
:1001700078C878C1FAD8520724BF30C830C144BF0C
:1001800004680C607047000000230024002500264E
:10019000103A28BF78C1FBD8520728BF30C148BFEA
:1001A0000B607047642904F03B84782904F0708464
:1001B000002070471FB5AFF300801FBD10B510BD04
:1001C00004F010FD1146FFF7F5FF00F00DF804F004
:1001D0002EFDFFF7F3FF02F023FF000030BF72B6E1
:1001E00062B680F3088870472DE9FC41002600279D
:1001F000B0464FF47A3002F03BFF02F0B1FE00F05F
:10020000F5FE00F059FB00F07DFB4FF47840A0496B
:100210000880A0A31022CDE900231346C822322172
:100220003C2002F0BAFD9FA31022CDE90023134623
:10023000C82246213C2002F0B0FD9DA31022CDE94A
:1002400000231346C8225A213C2002F0A6FD9CA39D
:100250001022CDE900231346C8226E213C2002F073
:100260009CFD9AA31022CDE900231346C8228221C7
:100270003C2002F092FD9BA31022CDE900231346FF
:10028000C82296213C2002F088FD9BA31022CDE9D4
:1002900000231346C822AA213C2002F07EFD9BA326
:1002A0001022CDE900231346C822BE213C2002F0D3
:1002B00074FD1F20764908800880E7E09848008890
:1002C00098B19748008886420DD195480788002646
:1002D00000209349088093A004F05AFB394696A069
:1002E00004F056FB01E08E480688601CC4B20A2068
:1002F00002F06DFE1E2C1BD19448006808B9012045
:1003000000E00020914908600024B8F1000F0FD0F0
:10031000A8F1010000F0FF08B8F1000F08D14FF676
:10032000FF730093E223F022D2213C2002F08FFAE7
:10033000002000F001FB0546042D48D1002F37D0E6
:1003400083A004F025FB87A31022CDE900231346E8
:10035000C822D2213C2002F020FD8848406800F0ED
:100360007F40B0F1006F15D13A468549854804F0C9
:10037000BDFA642002F02BFE83A31022CDE90023F6
:100380001346C822D2213C2002F007FD84A004F0CD
:10039000FFFA1AE086A31022CDE900231346C822F3
:1003A000D2213C2002F0F9FC87A004F0F1FA0CE025
:1003B0008AA004F0EDFA8FA31022CDE900231346A2
:1003C000C822D2213C2002F0E8FC4FF00708022DA1
:1003D0001ED177B189A004F0DBFA8CA31022CDE9FD
:1003E00000231346C822D2213C2002F0D6FC00276D
:1003F0000CE08CA004F0CCFA7EA31022CDE90023FF
:100400001346C822D2213C2002F0C7FC4FF0070857
:10041000032D1CD189A004F0BBFA5A48406800F0B3
:100420007F40B0F1006F03D1564804F096FA0CE01B
:1004300089A004F0ADFA8FA31022CDE90023134662
:10044000C822D2213C2002F0A8FC4FF00708012D61
:100450001CD18DA004F09CFA4848406800F07F4011
:10046000B0F1005F03D1454804F077FA0CE08DA0AD
:1004700004F08EFA92A31022CDE900231346C8227D
:10048000D2213C2002F089FC4FF0070816E700005B
:1004900016000020576172736869702053544D3301
:1004A00032000000494150205445535400000000E0
:1004B00041544F4D40414C49454E54454B0000007E
:1004C000323031322F392F3234000000574B5F5514
:1004D000503A436F70792041505032464C41534856
:1004E000000000004B4559313A4572617365205355
:1004F00052414D20415050004B4559303A52756E93
:10050000205352414D204150500000004B4559327C
:100510003A52756E20464C415348204150500000DD
:1005200022000020D3C3BBA7B3CCD0F2BDD3CAD521
:10053000CDEAB3C9210D0A00B4FAC2EBB3A4B6C820
:100540003A256442797465730D0A00009481214252
:10055000BFAACABCB8FCD0C2B9CCBCFE2E2E2E0D90
:100560000A000000436F7079696E67204150503275
:10057000464C4153482E2E2E000000000010002053
:100580000010002000000108436F70792041505096
:100590002053756363657373656421210000000057
:1005A000B9CCBCFEB8FCD0C2CDEAB3C9210D0A005B
:1005B000496C6C6567616C20464C41534820415042
:1005C0005021202000000000B7C7464C415348D3BB
:1005D000A6D3C3B3CCD0F2210D0A0000C3BBD3D045
:1005E000BFC9D2D4B8FCD0C2B5C4B9CCBCFE210DB1
:1005F0000A0000004E6F204150502100B9CCBCFED3
:10060000C7E5B3FDCDEAB3C9210D0A004150502022
:100610004572617365205375636365737365642107
:1006200000000000C3BBD3D0BFC9D2D4C7E5B3FD1F
:10063000B5C4B9CCBCFE210D0A000000BFAACABCDB
:10064000D6B4D0D0464C415348D3C3BBA7B4FAC2AA
:10065000EB21210D0A000000B7C7464C415348D397
:10066000A6D3C3B3CCD0F22CCEDEB7A8D6B4D0D0AC
:10067000210D0A00496C6C6567616C20464C415342
:100680004820415050210000BFAACABCD6B4D0D0E7
:100690005352414DD3C3BBA7B4FAC2EB21210D0A7B
:1006A00000000000B7C75352414DD3A6D3C3B3CC0B
:1006B000D0F22CCEDEB7A8D6B4D0D0210D0A0000DF
:1006C000496C6C6567616C205352414D204150501C
:1006D00021000000704700BFFEE700BFFEE700BF3B
:1006E000FEE700BFFEE770477047704770470000A5
:1006F00000200021674A126842F48032654B1A607C
:1007000000BF644A126802F40031401C11B9B0F510
:10071000A06FF6D15F4A126812F4003F01D00121A8
:1007200000E00021012942D15B4A126842F0100228
:10073000594B1A601A46126822F003021A601A46D0
:10074000126842F002021A60524A5268514B5A60D3
:100750001A4652685A601A46526842F480625A60D9
:100760001A46526822F47C125A601A46526842F4C1
:10077000E8125A601A46126842F080721A6000BF8E
:10078000444A126812F0007FFAD0424A526822F0BE
:100790000302404B5A601A46526842F002025A6005
:1007A00000BF3C4A526802F00C02082AF9D1704797
:1007B00010B5FFF79DFF10BD10B53648006840F03A
:1007C000010034490860084640683449084031490E
:1007D000486008460068324908402E4908600846CB
:1007E000006820F4802008600846406820F4FE007D
:1007F00048604FF41F008860FFF7DAFF4FF0006099
:100800002849086010BD10B5002000210022214BAE
:100810005B6803F00C0020B1042806D0082828D11A
:1008200007E0214B214C236027E01F4B1F4C236026
:1008300023E0184B5B6803F47011164B5B6803F4FC
:100840008032022303EB914122B9194B4B43174CE1
:1008500023600DE00F4B5B6813F4003F04D0144B92
:100860004B43124C236003E00F4B4B430F4C236070
:1008700003E00D4B0D4C236000BF00BF054B5B68D0
:10088000C3F303130B4CE05C084B1B68C340074CDD
:10089000236010BD00100240002002400000FFF85D
:1008A000FFFFF6FE08ED00E000127A0000000020D5
:1008B00000093D000400002008B50121482003F094
:1008C000C9FA2020ADF8000010208DF803000320A5
:1008D0008DF802006946094803F012F82021074804
:1008E00003F0B6F82020ADF800006946044803F094
:1008F00007F82021024803F0ABF808BD000C0140C6
:100900000018014008B50121442003F0A3FA1C207F
:10091000ADF8000048208DF803006946354802F024
:10092000EFFF0120ADF8000028208DF80300694694
:10093000314802F0E5FF08BD10B5044614B10120AE
:100940002E4908702D480078002837D010212948FA
:1009500003F064F878B10821264803F05FF850B13D
:100960000421244803F05AF828B10121224803F059
:1009700055F8012822D10A2002F029FB00201F4946
:10098000087010211B4803F049F808B9012010BD78
:100990000821184803F042F808B90220F7E70421BB
:1009A000144803F03BF808B90320F0E7012112488E
:1009B00003F034F801281BD10420E8E710210D488A
:1009C00003F02CF8012813D108210A4803F026F877
:1009D00001280DD10421074803F020F8012807D190
:1009E0000121054803F01AF810B9012003490870E5
:1009F0000020CCE70018014000080140140000204E
:100A0000F94908807047F849891C08807047F64802
:100A1000801C00887047F44A10804FF0D842A2F83A
:100A20000018704710B504462046FFF7E9FF05207F
:100A300002F0ABFAFFF7EBFF10BDEC48C079EA49D2
:100A400008807047E849891C0880704730B5014626
:100A500001F01F04C1F34513CA0AE50205EB431573
:100A60001544A8B230BD00BF0100A0F10102D0B210
:100A7000FAD1704710B503460C46DC488088A0F5D3
:100A80001341413905D0D9488088A0F5D0410439B7
:100A900014D1D649087AFFF7B3FF1812FFF7B3FF56
:100AA000D8B2FFF7B0FFD149487AFFF7A9FF20126B
:100AB000FFF7A9FFE0B2FFF7A6FF12E0CB4880796D
:100AC000012804D1C9480088401EC01A83B2C74912
:100AD000087A1946FFF79FFFC449487A2146FFF775
:100AE0009AFF10BD2DE9F04104460D46002600276F
:100AF000B046BE480088A04203DDBC484088A842FA
:100B000002DC0020BDE8F08129462046FFF7B2FF55
:100B1000B6488088A0F51341413905D0B348808894
:100B2000A0F5D041043903D12E20FFF769FF02E080
:100B30002220FFF765FFAD488088A0F513412039DA
:100B400002D10220FFF78FFFA748801C008800B168
:100B500000260220FFF787FFA348801C0688A348D1
:100B60008088A0F51341413909D10220FFF77BFFAE
:100B70009D48801CB0F80080F7B23F0208E09B4817
:100B80008088A0F5D041043902D19748801C06889E
:100B900096488088A0F58A41353911D093488088DD
:100BA000A0F58A4131390BD090488088A0F50941E1
:100BB000893905D08D488088A0F53541053901D1A6
:100BC00030469FE789488088A0F51341413907D115
:100BD000F012C002B91240EA411040EAE82091E761
:100BE0003046FFF733FF8DE700B580488088A0F5D9
:100BF0001341413905D07D488088A0F5D0410439A2
:100C000003D12920FFF7FCFE04E040F27311072016
:100C1000FFF701FF00BD00B574488088A0F51341BF
:100C2000413905D071488088A0F5D041043903D1FD
:100C30002820FFF7E5FE03E000210720FFF7EBFE89
:100C400000BD30B50346002400256848807901289E
:100C50001ED166488088A0F5D041043918D0082BF1
:100C600015D2DFE803F00406080A0C0E1012062362
:100C70000DE007230BE0042309E0052307E001232F
:100C800005E0002303E0032301E0022300BF00BFCF
:100C900056488088A0F51341413905D053488088D3
:100CA000A0F5D04104397ED1082B1CD2DFE803F037
:100CB0000406090C0F12151800BF14E044F080045C
:100CC00011E044F040040EE044F0C0040BE044F0B6
:100CD000200408E044F0600405E044F0A00402E0D1
:100CE00044F0E00400BF00BF362544F008043F484C
:100CF0008088A0F5D041043901D144F00204214696
:100D00002846FFF788FE14F0200F2CD02A20FFF78A
:100D100077FE0020FFF777FE0020FFF774FE3349CF
:100D20004988491EC1F30F20FFF76DFE2F494988FE
:100D3000491EC8B2FFF767FE2B20FFF761FE0020B7
:100D4000FFF761FE0020FFF75EFE28490988491E73
:100D5000C1F30F20FFF757FE24490988491EC8B286
:100D6000FFF751FE65E02A20FFF74AFE0020FFF75B
:100D70004AFE0020FFF747FE1C490988491EC1F3BF
:100D80000F20FFF740FE19490988491EC8B2FFF736
:100D90003AFE2B20FFF734FE0020FFF734FE002040
:100DA000FFF731FE00E00DE010494988491EC1F30C
:100DB0000F20FFF728FE0D494988491EC8B2FFF7EA
:100DC00022FE36E0082B21D2DFE803F004070A12E6
:100DD00014171A1D44F0300418E044F0100415E014
:100DE00044F0200412E00000FE07006C40000020E8
:100DF00000BF0BE044F0380408E044F0280405E0AC
:100E000044F0180402E044F0080400BF00BFFF48AB
:100E10008088A0F50941893904D1112546F24000A6
:100E2000044302E0032544F4805421462846FFF79A
:100E3000F2FD30BD30B504460D4629462046FFF789
:100E400019FEFFF7FAFDF2480088F249088030BD2C
:100E500030B503460C461546EC488088A0F5134192
:100E6000413905D0E9488088A0F5D041043914D132
:100E7000E649087AFFF7C4FD1812FFF7C4FDD8B29F
:100E8000FFF7C1FDE149487AFFF7BAFD2012FFF7ED
:100E9000BAFDE0B2FFF7B7FD12E0DC488079012827
:100EA00004D1DA480088401EC01A83B2D749087AB4
:100EB0001946FFF7B0FDD549487A2146FFF7ABFD4B
:100EC000D248C079D349891E08804FF0D840A0F895
:100ED000005830BD10B50446002C3DD1CB49887177
:100EE000F02008804FF4A070488008468088A0F564
:100EF0001341413905D0C5488088A0F5D041043957
:100F000014D12C20C149C8712A2008722B204872A4
:100F100008468088A0F5D04104394ED14FF4A07026
:100F2000BA4908804FF4F070488046E0B74880889E
:100F3000A0F50941893907D12220B449C8714E2052
:100F400008724F20487238E02220B049C871202032
:100F500008722120487230E0AC488088A0F5D0416A
:100F600004392AD00120A94988714FF4A070088063
:100F7000F020488008468088A0F51341413907D108
:100F80002C20A249C8712A2008722B20487214E034
:100F90009E488088A0F50941893907D122209B49C4
:100FA000C8714F2008724E20487206E022209749EF
:100FB000C87121200872202048720020FFF741FEEE
:100FC00010BD70B50446002690480588408845430A
:100FD00000210846FFF74EFDFFF72FFD00BF02E09E
:100FE0008C480480761CAE42FAD370BD00B59FB029
:100FF0000121080202F021FF012140F2691002F0F4
:1010000029FF0120ADF8780010208DF87B00032027
:101010008DF87A001EA9804802F072FC4CF2337001
:10102000ADF8780018208DF87B0003208DF87A0049
:101030001EA97A4802F064FC4FF68070ADF8780083
:1010400018208DF87B0003208DF87A001EA97448C3
:1010500002F056FC41F20100ADF8780018208DF83E
:101060007B0003208DF87A001EA96E4802F048FC30
:1010700001200890002009900F200A9000200B907A
:101080000C900D900E900190029003200390002090
:10109000049005900690079006200F900020109075
:1010A000119010201290002013901590149016901B
:1010B00017904FF480501890002019904FF4804002
:1010C0001A9000201B9008A81C9001A81D900FA842
:1010D00002F0FFF80121062002F060FA322001F050
:1010E00076FF01210020FFF796FC322001F06FFF10
:1010F0000020FFF797FC4549888008468088FF2834
:101100000ADB08468088A0F57F41FF3904D03F48BC
:101110008088B0F5134F45D1D320FFF771FCFFF75E
:1011200076FCFFF774FCFFF772FC384988800846AC
:1011300080880006000C8880FFF769FC33498988A5
:1011400008433249888008468088A0F51341413918
:1011500018D0BF20FFF754FCFFF759FCFFF757FCEE
:10116000FFF755FCFFF753FC284988800846808824
:101170000006000C8880FFF74AFC24498988084350
:101180002249888021488088A0F51341413909D03F
:101190001E488088A0F5D041043903D049F241307F
:1011A0001A498880194881881FA003F0F1FB17486D
:1011B0008088A0F5134141397ED1CF20FFF720FC74
:1011C0000020FFF720FCC120FFF71DFC3020FFF7B7
:1011D0001AFCED20FFF714FC6420FFF714FC032039
:1011E000FFF711FC1220FFF70EFC8120FFF70BFC2C
:1011F000E820FFF705FC8520FFF705FC1020FFF72E
:1012000002FC7A20FFF7FFFBCB2015E04000002016
:10121000160000200008006C000C01400014014082
:101220000018014000200140204C43442049443A2A
:1012300025780D0A00000000FFF7E2FB3920FFF7D8
:10124000E2FB2C20FFF7DFFB0020FFF7DCFB342064
:10125000FFF7D9FB0220FFF7D6FBF720FFF7D0FB03
:101260002020FFF7D0FBEA20FFF7CAFB0020FFF7A2
:10127000CAFB0020FFF7C7FBC020FFF7C1FB1B2004
:10128000FFF7C1FBC120FFF7BBFB0120FFF7BBFB52
:10129000C520FFF7B5FB3020FFF7B5FB3020FFF787
:1012A000B2FBC720FFF7ACFBB720FFF7ACFB362043
:1012B000FFF7A6FB482000E0AEE0FFF7A4FB3A20D2
:1012C000FFF79EFB5520FFF79EFBB120FFF798FB31
:1012D0000020FFF798FB1A20FFF795FBB620FFF7D9
:1012E0008FFB0A20FFF78FFBA220FFF78CFBF22079
:1012F000FFF786FB0020FFF786FB2620FFF780FB29
:101300000120FFF780FBE020FFF77AFB0F20FFF7BB
:101310007AFB2A20FFF777FB2820FFF774FB0820D1
:10132000FFF771FB0E20FFF76EFB0820FFF76BFB4A
:101330005420FFF768FBA920FFF765FB4320FFF768
:1013400062FB0A20FFF75FFB0F20FFF75CFB00202A
:10135000FFF759FB0020FFF756FB0020FFF753FB78
:101360000020FFF750FBE120FFF74AFB0020FFF7CA
:101370004AFB1520FFF747FB1720FFF744FB072028
:10138000FFF741FB1120FFF73EFB0620FFF73BFB79
:101390002B20FFF738FB5620FFF735FB3C20FFF7EB
:1013A00032FB0520FFF72FFB1020FFF72CFB0F204F
:1013B000FFF729FB3F20FFF726FB3F20FFF723FB2A
:1013C0000F20FFF720FB2B20FFF71AFB0020FFF771
:1013D0001AFB0020FFF717FB0120FFF714FB3F204B
:1013E000FFF711FB2A20FFF70BFB0020FFF70BFB99
:1013F0000020FFF708FB0020FFF705FBEF20FFF7B9
:1014000002FB1120FFF7FCFA782001F0E0FD292013
:10141000FFF7F6FA01F00FBAFF488088A0F5D04137
:1014200004397ED11120FFF7EBFA142001F0CFFD33
:10143000D020FFF7E5FA0720FFF7E5FA4220FFF793
:10144000E2FA1D20FFF7DFFAD120FFF7D9FA0020DA
:10145000FFF7D9FA1A20FFF7D6FA0920FFF7D3FAD7
:10146000D220FFF7CDFA0120FFF7CDFA2220FFF7B7
:10147000CAFAC020FFF7C4FA1020FFF7C4FA3B20D5
:10148000FFF7C1FA0020FFF7BEFA0220FFF7BBFA10
:101490001120FFF7B8FAC520FFF7B2FA0320FFF7D3
:1014A000B2FAC820FFF7ACFA0020FFF7ACFA25200B
:1014B000FFF7A9FA2120FFF7A6FA0520FFF7A3FA04
:1014C0000020FFF7A0FA0A20FFF79DFA6520FFF73A
:1014D0009AFA2520FFF797FA7720FFF794FA502021
:1014E000FFF791FA0F20FFF78EFA0020FFF78BFA33
:1014F000F820FFF785FA0120FFF785FAFE20FFF7B5
:101500007FFA0020FFF77FFA0220FFF77CFA202005
:10151000FFF776FA3620FFF773FA0820FFF773FA21
:1015200000E02AE03A20FFF76BFA5520FFF76BFA4C
:101530002B20FFF765FA0020FFF765FA0020FFF780
:1015400062FA0120FFF75FFA3F20FFF75CFA2A20DA
:10155000FFF756FA0020FFF756FA0020FFF753FA7C
:101560000120FFF750FADF20FFF74DFA782001F055
:101570002EFD2920FFF744FA4CE7A7488088A0F504
:10158000134125397ED147F6F001E520FFF743FAF4
:101590004FF480710120FFF73EFA4FF4E061022022
:1015A000FFF739FA41F230010320FFF734FA002146
:1015B0000420FFF730FA40F202210820FFF72BFA4F
:1015C00000210920FFF727FA00210A20FFF723FA5C
:1015D00000210C20FFF71FFA00210D20FFF71BFA56
:1015E00000210F20FFF717FA00211020FFF713FA50
:1015F00007211120FFF70FFA00211220FFF70BFA45
:1016000000211320FFF707FA00210720FFF703FA54
:1016100041F290611020FFF7FEF940F227211120DE
:10162000FFF7F9F99D211220FFF7F5F94FF4C851A2
:101630001320FFF7F0F925212920FFF7ECF90D2100
:101640002B20FFF7E8F907213020FFF7E4F940F2FB
:1016500003313120FFF7DFF903213220FFF7DBF9F7
:1016600040F206213520FFF7D6F908213620FFF792
:10167000D2F940F206413720FFF7CDF94FF441711E
:10168000382000E057E0FFF7C6F907213920FFF7BF
:10169000C2F940F202613C20FFF7BDF908213D206C
:1016A000FFF7B9F900215020FFF7B5F9EF215120DC
:1016B000FFF7B1F900215220FFF7ADF940F23F11D9
:1016C0005320FFF7A8F94FF427416020FFF7A3F953
:1016D00001216120FFF79FF900216A20FFF79BF9A4
:1016E00000218020FFF797F900218120FFF793F96F
:1016F00000218220FFF78FF900218320FFF78BF96B
:1017000000218420FFF787F900218520FFF783F966
:1017100010219020FFF77FF94FF4C0619220FFF76E
:101720007AF940F233110720FFF775F922210020E2
:10173000FFF771F96EE638488088A0F51341283923
:101740006CD141F28F01EC20FFF765F941F23421B1
:10175000EF20FFF760F94FF480710120FFF75BF98C
:101760004FF4E0610220FFF756F941F23001032007
:10177000FFF751F900210420FFF74DF940F2022153
:101780000820FFF748F900210920FFF744F900215C
:101790000A20FFF740F901210C20FFF73CF9002156
:1017A0000D20FFF738F900210F20FFF734F9002151
:1017B0001020FFF730F907211120FFF72CF9002145
:1017C0001220FFF728F900211320FFF724F9012147
:1017D0000720FFF720F9322001F0F9FB41F2904198
:1017E0001020FFF718F940F227211120FFF713F915
:1017F000322001F0ECFB8A211220FFF70CF9322095
:1018000001F0E5FB4FF4D0511320FFF704F9062156
:101810002920FFF700F902E04000002088E00D21B8
:101820002B20FFF7F8F8322001F0D1FB0021202017
:10183000FFF7F1F800212120FFF7EDF8322001F049
:10184000C6FB00213020FFF7E6F840F204613120AA
:10185000FFF7E1F840F205313220FFF7DCF8002114
:101860003520FFF7D8F840F609413620FFF7D3F8C6
:101870004FF401713720FFF7CEF840F201313820E4
:10188000FFF7C9F840F207713920FFF7C4F80021CB
:101890003C20FFF7C0F840F60A213D20FFF7BBF8D7
:1018A000322001F094FB00215020FFF7B4F8EF2123
:1018B0005120FFF7B0F800215220FFF7ACF840F2BA
:1018C0003F115320FFF7A7F84FF427416020FFF79F
:1018D000A2F801216120FFF79EF800216A20FFF79E
:1018E0009AF800218020FFF796F800218120FFF769
:1018F00092F800218220FFF78EF800218320FFF765
:101900008AF800218420FFF786F800218520FFF760
:1019100082F810219020FFF77EF84FF4C0619220EA
:10192000FFF779F840F233110720FFF774F871E5FB
:10193000FF488088A0F5134120397ED10846FFF783
:101940006AF84FF480710120FFF765F84FF4E06109
:101950000220FFF760F841F230010320FFF75BF847
:1019600000210420FFF757F840F202210820FFF77A
:1019700052F800210920FFF74EF800210A20FFF756
:101980004AF801210C20FFF746F800210D20FFF74F
:1019900042F800210F20FFF73EF8322001F017FB3C
:1019A00040F201110720FFF736F8322001F00FFB5B
:1019B0004FF486511020FFF72EF807211120FFF772
:1019C0002AF84FF488711220FFF725F84FF43061A0
:1019D0001320FFF720F800212920FFF71CF844F21C
:1019E00010012B20FFF717F800215020FFF713F804
:1019F000EF215120FFF70FF800215220FFF70BF8DD
:101A000040F23F115320FFF706F84FF41C516020BD
:101A1000FFF701F801216120FEF7FDFF00216A2098
:101A2000FEF7F9FF00218020FEF7F5FF002181205D
:101A3000FEF7F1FF0021822000E02CE0FEF7EBFF33
:101A400000218320FEF7E7FF00218420FEF7E3FF5B
:101A500000218520FEF7DFFF10219020FEF7DBFF3D
:101A600000219220FEF7D7FF01219320FEF7D3FF3C
:101A70004FF488719520FEF7CEFF00219720FEF7E6
:101A8000CAFF00219820FEF7C6FF40F2731107201D
:101A9000FEF7C1FFBEE4A6488088A0F513413139A6
:101AA0007DD141F21401E720FEF7B5FF4FF48071BC
:101AB0000120FEF7B0FF4FF400710220FEF7ABFFEC
:101AC00041F238010320FEF7A6FF40F20221082070
:101AD000FEF7A1FF00210920FEF79DFF00210A204B
:101AE000FEF799FF00210C20FEF795FF00210D2045
:101AF000FEF791FF00210F20FEF78DFF002110203F
:101B0000FEF789FF07211120FEF785FF0021122033
:101B1000FEF781FF00211320FEF77DFFC82001F0B2
:101B200056FA41F290611020FEF775FF40F227212E
:101B30001120FEF770FF322001F049FA0C2112202B
:101B4000FEF769FF322001F042FA4FF400611320E2
:101B5000FEF761FF11212920FEF75DFF0B212B20ED
:101B6000FEF759FF322001F032FA00212020FEF763
:101B700052FF40F23F112120FEF74DFF002130209F
:101B8000FEF749FF4FF483713120FEF744FF002137
:101B90003220FEF740FF4FF40171352000E064E091
:101BA000FEF739FF41F20A613620FEF734FF40F2BA
:101BB00007713720FEF72FFF4FF483713820FEF7AF
:101BC0002AFF40F207713920FEF725FF40F202415B
:101BD0003C20FEF720FF40F60F413D20FEF71BFFA3
:101BE00000215020FEF717FFEF215120FEF713FFD1
:101BF00000215220FEF70FFF40F23F115320FEF765
:101C00000AFF4FF41C516020FEF705FF01216120FF
:101C1000FEF701FF00216A20FEF7FDFE0021802073
:101C2000FEF7F9FE00218120FEF7F5FE002182205B
:101C3000FEF7F1FE00218320FEF7EDFE0021842057
:101C4000FEF7E9FE00218520FEF7E5FE1021902039
:101C5000FEF7E1FE4FF4C0619220FEF7DCFE40F299
:101C600033110720FEF7D7FE86E431488088A0F5BF
:101C7000A84108397DD14FF480710120FEF7CBFED9
:101C80004FF4E0610220FEF7C6FE41F2300103206E
:101C9000FEF7C1FE00210420FEF7BDFE40F2072141
:101CA0000820FEF7B8FE00210920FEF7B4FE00214F
:101CB0000A20FEF7B0FE00210C20FEF7ACFE00214A
:101CC0000D20FEF7A8FE00210F20FEF7A4FE142031
:101CD00001F07DF941F2B0611020FEF79CFE012178
:101CE0001120FEF798FE01211720FEF794FE4FF415
:101CF0009C711220FEF78FFE4FF400611320FEF757
:101D00008AFE09212920FEF786FE09212A20FEF7F6
:101D100082FE0021A420FEF77EFE00215020FEF767
:101D20007AFEEF215120FEF776FE0021522001E0DD
:101D300040000020FEF76FFE40F23F115320FEF7F7
:101D40006AFE4FF41C516020FEF765FE0121612000
:101D5000FEF761FE00216A20FEF75DFE0021802073
:101D6000FEF759FE00218120FEF755FE002182205A
:101D700000E027E0FEF74FFE00218320FEF74BFE38
:101D800000218420FEF747FE00218520FEF743FE58
:101D900013219020FEF73FFE00219220FEF73BFE2C
:101DA00003219320FEF737FE4FF488719520FEF74C
:101DB00032FE40F273110720FEF72DFE322001F0B3
:101DC00006F9B7E4FF488088A0F5A85105397ED10F
:101DD0000720FEF720FE322001F0F9F84FF48E7153
:101DE0001220FEF718FE0121A420FEF714FE0F2199
:101DF0000820FEF710FE08210A20FEF70CFE08213D
:101E00000D20FEF708FE40F207713020FEF703FEBA
:101E100007213120FEF7FFFD40F203613220FEF77B
:101E2000FAFD4FF4E0613320FEF7F5FD40F20221A8
:101E30003420FEF7F0FD02213520FEF7ECFD41F6DF
:101E40000F713620FEF7E7FD40F207713720FEF7ED
:101E5000E2FD00213820FEF7DEFD00213920FEF7EB
:101E6000DAFD40F207713A20FEF7D5FD00213B2054
:101E7000FEF7D1FD07213C20FEF7CDFD00213D20DE
:101E8000FEF7C9FD322001F0A2F801210720FEF77C
:101E9000C2FD01211720FEF7BEFD322001F097F8A8
:101EA0004FF4BD511020FEF7B6FD40F2172111206E
:101EB000FEF7B1FD4FF48F711220FEF7ACFD4FF429
:101EC00070611320FEF7A7FD00212A2000E093E0B7
:101ED000FEF7A1FD0A212920FEF79DFD4FF49F7119
:101EE0001220FEF798FD00215020FEF794FDEF210F
:101EF0005120FEF790FD00215220FEF78CFD40F2AC
:101F00003F115320FEF787FD4FF41C516020FEF770
:101F100082FD01216120FEF77EFD00216A20FEF78F
:101F20007AFD00218020FEF776FD00218120FEF75A
:101F300072FD00218220FEF76EFD00218320FEF756
:101F40006AFD00218420FEF766FD00218520FEF752
:101F500062FD13219020FEF75EFD4FF44071922048
:101F6000FEF759FD05219320FEF755FD0021952030
:101F7000FEF751FD00219720FEF74DFD002198202E
:101F8000FEF749FD4FF480710120FEF744FD4FF448
:101F9000E0610220FEF73FFD41F238010320FEF729
:101FA0003AFD00210420FEF736FD00210C20FEF74B
:101FB00032FD00210F20FEF72EFD00212020FEF72C
:101FC0002AFD00212120FEF726FD21210720FEF712
:101FD00022FD142000F0FBFF61210720FEF71BFD0E
:101FE000142000F0F4FF40F273110720FEF713FDF8
:101FF000142000F0ECFF9AE472488088A0F5354187
:1020000005397DD10846FEF706FD00210846FEF79A
:1020100002FD00210846FEF7FEFC00210846FEF7FF
:10202000FAFC0121A420FEF7F6FC142000F0CFFFFB
:102030004FF41C516020FEF7EEFC40F20221082014
:10204000FEF7E9FC4FF405713020FEF7E4FC43F2A3
:1020500015713120FEF7DFFC40F204613220FEF7FB
:10206000DAFC40F616613320FEF7D5FC42F211216E
:102070003420FEF7D0FC4FF4A8513520FEF7CBFCFE
:1020800048F207513620FEF7C6FC41F207413720DF
:10209000FEF7C1FC41F203413820FEF7BCFC2021D1
:1020A0003920FEF7B8FC1A219020FEF7B4FC00217D
:1020B0001020FEF7B0FC07211120FEF7ACFC002138
:1020C0001220FEF7A8FC00211320FEF7A4FC142028
:1020D00000F07DFF4FF4E6611020FEF79CFC40F21B
:1020E00037111120FEF797FC142000F070FF4FF419
:1020F000DC711220FEF78FFC142000F068FF00E076
:1021000086E04FF470611320FEF785FC80212A20C1
:10211000FEF781FC48212920FEF77DFC142000F009
:1021200056FF4FF480710120FEF775FC4FF4E0611B
:102130000220FEF770FC41F238010320FEF76BFC31
:1021400040F202210820FEF766FC00210A20FEF77B
:1021500062FC00210C20FEF75EFC00210D20FEF742
:102160005AFC30210E20FEF756FC00215020FEF7CD
:1021700052FCEF215120FEF74EFC00215220FEF7C9
:102180004AFC40F23F115320FEF745FC4FF41C512E
:102190006020FEF740FC01216120FEF73CFC00219D
:1021A0006A20FEF738FC11219020FEF734FC4FF432
:1021B000C0619220FEF72FFC40F202419320FEF70F
:1021C0002AFC01E04000002002219420FEF723FCBD
:1021D000142000F0FCFE01210720FEF71CFC142057
:1021E00000F0F5FE61210720FEF715FC40F27311A7
:1021F0000720FEF710FC00212020FEF70CFC002138
:102200002120FEF708FC22210020FEF704FC12E347
:10221000FF488088A0F5454105397DD10846FEF785
:10222000FAFB00210846FEF7F6FB142000F0CFFE73
:1022300000210846FEF7EFFB00210846FEF7EBFB06
:1022400000210846FEF7E7FB00210846FEF7E3FB06
:102250000121A420FEF7DFFB142000F0B8FE4FF4AC
:102260001C516020FEF7D7FB40F606010820FEF760
:10227000D2FB40F203713020FEF7CDFB012131206B
:10228000FEF7C9FB04213220FEF7C5FB4FF4817134
:102290003320FEF7C0FB4FF440713420FEF7BBFB48
:1022A00040F203113520FEF7B6FB1F213620FEF762
:1022B000B2FB40F203713720FEF7ADFB012138205D
:1022C000FEF7A9FB04213920FEF7A5FB152190207C
:1022D000FEF7A1FB4FF482611020FEF79CFB40F259
:1022E00047211120FEF797FB4FF4DE711220FEF715
:1022F00092FB4FF460611320FEF78DFB782000F015
:1023000066FE4FF480710120FEF785FB4FF40071EB
:102310000220FEF780FB00E050E041F23001032094
:10232000FEF779FB08210A20FEF775FB00210C203F
:10233000FEF771FB20210E20FEF76DFB00210F2020
:10234000FEF769FB00212020FEF765FB002121201C
:10235000FEF761FB3D212A20FEF75DFB142000F013
:1023600036FE2D212920FEF756FB00215020FEF7D6
:1023700052FB4DF2EF015120FEF74DFB00215220A0
:10238000FEF749FB40F23F115320FEF744FB0021CA
:102390006120FEF740FB00216A20FEF73CFB4FF472
:1023A00040719220FEF737FB05219320FEF733FBA7
:1023B0004FF480710720FEF72EFB3CE294488088A2
:1023C000A0F5094189397DD101210020FEF723FBC9
:1023D0004AF6A4010320FEF71EFB00210C20FEF7A5
:1023E0001AFB40F60C010D20FEF715FB4FF42C51A3
:1023F0000E20FEF710FBB0211E20FEF70CFB42F66C
:102400003F310120FEF707FB4FF4C0610220FEF7C9
:1024100002FB00211020FEF7FEFA46F2780111209F
:10242000FEF7F9FA00210520FEF7F5FA0021062053
:10243000FEF7F1FA4EF61C711620FEF7ECFA0321B6
:102440001720FEF7E8FA40F233210720FEF7E3FAFF
:1024500000210B20FEF7DFFA00210F20FEF7DBFA48
:1024600000214120FEF7D7FA00214220FEF7D3FADF
:1024700000214820FEF7CFFA40F23F114920FEF735
:10248000CAFA00214A20FEF7C6FA00214B20FEF7C7
:10249000C2FA4FF46F414420FEF7BDFA00214520F7
:1024A000FEF7B9FA40F23F114620FEF7B4FA40F2C7
:1024B00007713020FEF7AFFA4FF401713120FEF7BB
:1024C000AAFA00E03DE04FF401713220FEF7A3FAD2
:1024D00040F202513320FEF79EFA40F207513420B9
:1024E000FEF799FA4FF401713520FEF794FA4FF494
:1024F00001713620FEF78FFA40F202513720FEF7C5
:102500008AFA40F202313A20FEF785FA40F20231AF
:102510003B20FEF780FA00212320FEF77CFA002101
:102520002420FEF778FA4FF400412520FEF773FAD5
:1025300000214F20FEF76FFA00214E20FEF76BFAC4
:1025400079E133488088A0F58A4131397ED1012173
:102550000020FEF760FA0A2000F039FD41F2286100
:102560001020FEF758FA0E211220FEF754FA40F61A
:1025700039211320FEF74FFA0A2000F028FD4021F0
:102580001120FEF748FA50211520FEF744FA0A20E0
:1025900000F01DFD1E211220FEF73DFA0A2000F07A
:1025A00016FD4FF4B1511020FEF735FA42F63921ED
:1025B0001320FEF730FA0A2000F009FD4FF4807175
:1025C0000120FEF728FA4FF440710220FEF723FAAB
:1025D00041F238010320FEF71EFA40F202210820E2
:1025E000FEF719FA08210A20FEF715FA002130201B
:1025F000FEF711FA40F202413120FEF70CFA4FF4D7
:1026000083713220FEF707FA40F20351332001E0D4
:1026100040000020FEF7FFF94FF482713420FEF7EE
:10262000FAF940F201313520FEF7F5F940F2077171
:102630003620FEF7F0F940F205313720FEF7EBF9CE
:102640004FF402713820FEF7E6F900E03EE040F674
:102650000B713920FEF7DFF902214120FEF7DBF98B
:102660004FF41C516020FEF7D6F901216120FEF7DE
:10267000D2F94FF404719020FEF7CDF94FF4857133
:102680009220FEF7C8F904219320FEF7C4F94FF415
:102690008071A020FEF7BFF901210720FEF7BBF9EA
:1026A00021210720FEF7B7F923210720FEF7B3F910
:1026B00033210720FEF7AFF940F233110720FEF770
:1026C000AAF90021A020FEF7A6F9B4E0FA48808814
:1026D000A0F58A413539F8D130211520FEF79BF954
:1026E00010219A20FEF797F920211120FEF793F987
:1026F00043F228411020FEF78EF902211220FEF746
:102700008AF941F238011320FEF785F9282000F0FC
:102710005EFC12210846FEF77EF9282000F057FCE7
:1027200043F220411020FEF776F943F238011320DE
:10273000FEF771F9462000F04AFC00213020FEF738
:102740006AF940F202413120FEF765F940F20731A3
:102750003220FEF760F94FF441713320FEF75BF948
:1027600004213420FEF757F940F201413520FEF7ED
:1027700052F940F207713620FEF74DF940F205316B
:102780003720FEF748F94FF4C2613820FEF743F9CD
:102790004FF4C2613920FEF73EF94FF480710120F9
:1027A000FEF739F94FF440710220FEF734F941F297
:1027B00030010320FEF72FF940F608010820FEF74C
:1027C0002AF908210A20FEF726F94FF41C5160204F
:1027D000FEF721F901216120FEF71DF94FF49F71E9
:1027E0009020FEF718F94FF480719220FEF713F94C
:1027F0004FF480719320FEF70EF94FF44051A02062
:10280000FEF709F91021A320FEF705F901210720A1
:10281000FEF701F921210720FEF7FDF8232107200B
:10282000FEF7F9F833210720FEF7F5F840F23311EF
:102830000720FEF7F0F80020FEF74CFB01209F492F
:1028400008604FF6FF70FEF7BCFB1FB000BD2DE91E
:10285000F04F04460D4616461F46DDF824804FF023
:10286000000B301B401C1FFA80FBA94615E04946AF
:102870002046FEF7FFF8FEF7E0F84FF0000A06E00A
:102880004046FEF7C0F80AF101001FFA80FADA4567
:10289000F6DB09F101001FFA80F9B945E7DDBDE873
:1028A000F08F2DE9F84F04460D4616461F46DDF819
:1028B0002880301B401C80B20090781B401C1FFAFF
:1028C00080F94FF0000A1BE005EB0A0081B22046B8
:1028D000FEF7D0F8FEF7B1F84FF0000B09E00AFB65
:1028E00009B038F81000764908800BF101001FFA92
:1028F00080FB00988345F2DB0AF101001FFA80FAA1
:10290000CA45E1DBBDE8F88F2DE9FF4F85B00446ED
:102910000D461646002004900390A6EB0408089884
:10292000A0EB0509A3460095B8F1000F02DD0120D8
:1029300001900AE0B8F1000F02D10020019004E0FC
:102940004FF0FF300190C8F10008B9F1000F02DD2F
:102950004FF0010A09E0B9F1000F02D14FF0000A6F
:1029600003E04FF0FF3AC9F10009C84502DDCDF898
:10297000088001E0CDF80890002722E0009881B29D
:102980001FFA8BF0FEF756FA04984044049003981F
:102990004844039002990498884205DD04990298FE
:1029A000081A049001988344DDE90210884206DD8C
:1029B000DDE90210401A0390009850440090781C02
:1029C00087B20298401C8742D8DD09B0BDE8F08F7D
:1029D000F0B504460D4616461F462B46324629469C
:1029E0002046FFF791FF3B46224629462046FFF747
:1029F0008BFF3B46324639462046FFF785FF3B4674
:102A0000324629463046FFF77FFFF0BD2DE9F043FF
:102A100004460D4616460027B0460320A0EB4609A3
:102A200046E0A5EB080291B2E21990B2FEF702FA75
:102A3000EA1B91B204EB080290B2FEF7FBF9EA1927
:102A400091B204EB080290B2FEF7F4F905EB08022C
:102A500091B2E21990B2FEF7EDF905EB080291B2DE
:102A6000E21B90B2FEF7E6F9EA1991B2A4EB080274
:102A700090B2FEF7DFF9A5EB080291B2E21B90B22B
:102A8000FEF7D8F9EA1B91B2A4EB080290B2FEF768
:102A9000D1F97F1CB9F1000F03DAB800801D814421
:102AA00006E0A7EB080080000A308144A8F1010885
:102AB0004745B6DDBDE8F08340000020808121421B
:102AC0000008006C2DE9F84F04460D4616461F46D7
:102AD0000095CA48B0F800B0A6F12000C6B20A9826
:102AE000002850D182464BE00C2F07D106EB460060
:102AF000C34901EB800010F80A8004E0C14800EBF4
:102B0000061010F80A804FF0000931E018F0800F2D
:102B100003D0BA48A0F800B003E0BB480088B7492A
:102B2000088029462046FEF785F94FEA48604FEABB
:102B30001068681C85B2B5484088A04204DCAF48E4
:102B4000A0F800B0BDE8F88F0098281AB8420BD161
:102B5000009D601C84B2AD480088A04203DCA748F9
:102B6000A0F800B0EEE706E009F1010000F0FF096F
:102B7000B9F1080FCADB00BF0AF1010000F0FF0A3B
:102B8000BA45B1DB47E04FF0000A42E00C2F07D115
:102B900006EB46009A4901EB800010F80A8004E039
:102BA000984800EB061010F80A804FF0000928E062
:102BB00018F0800F03D029462046FEF73BF94FEA74
:102BC00048604FEA1068681C85B290484088A0426F
:102BD00003DC8A48A0F800B0B4E70098281AB8428D
:102BE0000BD1009D601C84B288480088A04203DCA1
:102BF0008248A0F800B0A5E706E009F1010000F066
:102C0000FF09B9F1080FD3DB00BF0AF1010000F0A2
:102C1000FF0ABA45BADB7948A0F800B092E710B5D0
:102C20000246012000E050430B00A1F10104E1B293
:102C3000F9D110BD2DE9FF4F81B0044615461E465F
:102C40000E9F4FF0000AD0463EE0A6EB0800401E63
:102C5000C1B20A20FFF7E3FFB5FBF0F00A21B0FB99
:102C6000F1F201FB120000F0FF09BAF1000F16D1DA
:102C7000701E404513DDB9F1000F0ED10023BB4695
:102C800007EBD771491001FB084188B200933B461E
:102C900020220299FFF716FF12E04FF0010A0023ED
:102CA000BB4607EBD771491001FB084188B200937E
:102CB0003B4609F13001CAB20299FFF703FF00BF9A
:102CC00008F1010000F0FF08B045BEDB05B0BDE82B
:102CD000F08F2DE9FF4F82B0044615461E46DDE910
:102CE0000F7800200190814652E0A6EB0900401EBB
:102CF000C1B20A20FFF793FFB5FBF0F00A21B0FB49
:102D0000F1F201FB120000F0FF0A019850BB701EA7
:102D1000484527DDBAF1000F22D118F0800F0FD0FF
:102D200008F00103BB4607EBD771491001FB0941CD
:102D300088B200933B4630220399FFF7C3FE0EE0B2
:102D400008F00103BB4607EBD771491001FB0941AD
:102D500088B200933B4620220399FFF7B3FE13E0AD
:102D60000120019008F00103BB4607EBD771491021
:102D700001FB094188B200933B460AF13001CAB217
:102D80000399FFF79FFE00BF09F1010000F0FF0962
:102D9000B145AADB06B0BDE8F08F2DE9F84704463F
:102DA0000D4616461F46DDE9098904F0FF0A301971
:102DB00086B2781987B219E0B44203DB544605EBBA
:102DC000080085B2BD4200DB14E00023009399F8AF
:102DD0000020434629462046FFF774FE404608EB94
:102DE000D87104EB61018CB209F1010999F8000076
:102DF0000028E1D100BFBDE8F887000016000020E0
:102E0000444C0008B8500008180000204000002082
:102E10000146088870472DE9F04104460D461746E3
:102E2000002607E035F81610204601F0DDFBA41C53
:102E3000701C86B2BE42F5DBBDE8F08130B50346BA
:102E40000C46002507E01846FFF7E2FF24F81500BE
:102E50009B1C681C85B29542F5DB30BD2DE9F05F07
:102E600004460D461646B4F1006F02D33A48844238
:102E700001D3BDE8F09F01F071FAA4F1006B4FEAB5
:102E8000DB27CBF34908C8F580694E4500DCB14625
:102E900054E04FF0006202EBC72052142F49FFF7B5
:102EA000CDFF4FF0000A0DE008EB0A002B4931F886
:102EB0001000A0F57F41FF3900D005E00AF10100C4
:102EC0001FFA80FACA45EFDB00BFCA451EDA4FF091
:102ED000006202EBC72001F087FA4FF0000A0AE017
:102EE00035F81A000AEB08011C4A22F811000AF111
:102EF00001001FFA80FACA45F2DB4FF0006202EBD4
:102F0000C72052141549FFF786FF04E04A462946B8
:102F10002046FFF780FF4E4500D110E07F1C4FF0A8
:102F2000000805EB49054C44A6EB090086B2B6F54E
:102F3000806F02DD4FF4806900E0B146A9E700BF71
:102F400001F018FA95E713B50446012201A92046BD
:102F5000FFF784FF1CBD0000000008084A000020A5
:102F600010B56FF0040000F049F92A4800682A49BA
:102F7000B0FBF1F029490870084600784FF47A71E7
:102F800048432649891C088010BD244A12784243D0
:102F90004FF0E0235A6100229A611A46126942F00A
:102FA00001021A6100BF4FF0E022116911F0010F18
:102FB00002D011F4803FF6D04FF0E022126922F0E7
:102FC00001024FF0E0231A6100229A617047134A10
:102FD000921C128842434FF0E0235A6100229A610A
:102FE0001A46126942F001021A6100BF4FF0E02256
:102FF000116911F0010F02D011F4803FF6D04FF0AB
:10300000E022126922F001024FF0E0231A6100224F
:103010009A6170470000002000127A001A00002018
:10302000014600BF704700BF374A128812F0400FB8
:10303000FAD0C2B2344B1B1D1A80704710B540F253
:103040002551314801F029F988B12F4801F0A5F840
:10305000C4B22E480088B0F55C4F08DA2C482B49E2
:103060000988445429480088401C2849088010BD1C
:1030700010B586B00446012144F2040000F0EAFED7
:103080004FF40070ADF8140003208DF816001820DE
:103090008DF8170005A91F4800F032FC4FF480603E
:1030A000ADF8140004208DF8170005A9194800F0A8
:1030B00027FC01940020ADF80800ADF80A00ADF837
:1030C0000C00ADF810000C20ADF80E0001A90E4860
:1030D00000F065FF25208DF8000003208DF8010029
:1030E0008DF8020001208DF80300684600F039F8E1
:1030F000012240F22551044800F0E8FF0121024876
:1031000000F0D8FF06B010BD0038014022000020BA
:103110000010002000080140094880470948004786
:10312000FEE7FEE7FEE7FEE7FEE7FEE7FEE7FEE777
:10313000FEE7FEE704480549054A064B70470000D4
:10314000B907000831010008B0080020B00E0020C7
:10315000B00A0020B00A002032490143324A11600F
:10316000704770B5002100230F22C4780CB32E4C99
:10317000246804F4E064C4F5E064210AC1F10403A6
:10318000CA40447804FA03F18478144021430901C9
:10319000264C0678A155047804F01F050124AC40A4
:1031A00005786D114FF0E02606EB8505C5F8004166
:1031B00009E0047804F01F040125A5401C4C0678A2
:1031C000761144F8265070BD1A4A0A400243164B45
:1031D0001B1F1A60704741B1134A121D1268024347
:1031E0004FF0E023C3F8102D07E00F4A121D1268BC
:1031F00082434FF0E023C3F8102D7047042808D114
:103200004FF0E021096941F004014FF0E022116123
:1032100007E04FF0E021096921F004014FF0E022BE
:10322000116170470000FA050CED00E000E400E0D9
:1032300080E100E080FFFF1F30B943F2DB014FF077
:10324000204242F8201005E043F2D2014FF0204224
:1032500042F820106FF07042411C4FF0204343F8B9
:10326000212011461A4602EB8002C2F80411704771
:1032700010280AD118214FF02042116640215166D2
:103280004FF0FC319166D16610E01821FA4A1160C6
:1032900040214FF02042C2F884104FF0FC31F64A32
:1032A000083211604FF02042C2F88C10704718208D
:1032B000F1492031086000200906C1F8A4004FF050
:1032C000FC30ED4928310860091D0860091D0860BF
:1032D0007047D0E901121143C268114302691143DA
:1032E0004269114382691143C2691143026A114361
:1032F000426A1143826A1143C26A1143026B11434D
:103300004FF02043026843F822108168082908D151
:103310001A46016852F8211041F04001026843F852
:103320002210416B0968426B526841EA0211426BFC
:10333000926841EA0221426BD26841EA0241426B43
:10334000126941EA0251426B526941EA0261426BE1
:10335000926911430268521C4FF0204343F8221037
:10336000C16AB1F5804F1AD1816B0968826B5268CE
:1033700041EA0211826B926841EA0221826B126972
:1033800041EA0251826B526941EA0261826B9269A1
:103390001143026803EB8202C2F8041108E06FF0E7
:1033A00070414FF02043026803EB8202C2F804111F
:1033B000704730B5002100220023446844F008041F
:1033C00085682C43C5682C4305692C43456944EA4C
:1033D0004524856944EA4531C4692468C5696D6836
:1033E00044EA0524C569AD6844EA0544C569ED6849
:1033F00044EA0562046A2468056A6D6844EA0524A3
:10340000056AAD6844EA0544056AED6844EA056367
:103410000468102C05D14FF020442166A266E366B3
:1034200008E0954C21604FF02044C4F88820924C6D
:103430000C34236030BD016841F01001426841EA5C
:103440004221826841EA42318B4A20321160C168D0
:103450000968C268526841EA0221C268926841EA7A
:103460000241C268D26841EA0261834A283211608F
:10347000016909680269526841EA02210269926899
:1034800041EA02410269D26841EA02617A4A2C3279
:103490001160416909684269526841EA0221426942
:1034A000926841EA02414269D26841EA02614FF002
:1034B0002042C2F8B0107047002101600221416033
:1034C00000218160C160016141618161C16101626E
:1034D0004FF480514162490081620021C162016361
:1034E0000F21426B1160426B5160FF21426B916072
:1034F0000F21426BD160426B1161426B516100211F
:10350000426B91610F21826B1160826B5160FF21D0
:10351000826B91600F21826BD160826B1161826B33
:1035200051610021826B916170471021016000217F
:1035300041608160C160016141618161FC21C269BA
:103540001160C2695160C2699160C269D160026A4A
:103550001160026A5160026A9160026AD16070472C
:103560000021016041608160FC21C2681160C26875
:103570005160C2689160C268D160026911600269DD
:103580005160026991600269D160426911604269CB
:103590005160426991604269D160704751B14FF00A
:1035A000204252F8202042F001024FF0204343F81D
:1035B000202009E04FF0204252F820202F4B1A40E3
:1035C0004FF0204343F82020704799B1102808D1CC
:1035D0004FF02042126E42F004024FF020431A6670
:1035E0001DE0254A126842F004024FF02043C3F860
:1035F000802014E0102809D14FF02042126E1F4B9A
:10360000DB1E1A404FF020431A6608E01A4A12687F
:103610001A4BDB1E1A404FF02043C3F8802070473E
:1036200048B115492031096841F004014FF02042AA
:10363000C2F8A01009E01049203109680F4AD21ED3
:1036400011404FF02042C2F8A0107047C1B11028BD
:1036500008D14FF02042126E42F040024FF020435A
:103660001A6620E0044A126842F040024FF02043FC
:10367000C3F8802017E00000800000A0FEFF0F00CC
:10368000102808D14FF02042126E6B4B1A404FF0B9
:1036900020431A6607E0694A1268674B1A404FF0E8
:1036A0002043C3F88020704701460020102903D131
:1036B0004FF02042506F02E0604A143210687047A9
:1036C00010B5F2B1102807D14FF020435B6E0B43C9
:1036D0004FF02044636632E0B0F5807F08D1574B4D
:1036E0001B1D1B680B434FF02044C4F8843026E0B8
:1036F000524B24331B680B434FF02044C4F8A430D2
:103700001DE0102807D14FF020435B6E8B434FF034
:103710002044636613E0B0F5807F08D1474B1B1D42
:103720001B688B434FF02044C4F8843007E0434BC0
:1037300024331B688B434FF02044C4F8A43010BDE1
:1037400010B5034600200022102B03D14FF0204477
:10375000626E09E0B3F5807F03D1384C241D2268E6
:1037600002E0364C243422680A4201D0012000E0F5
:10377000002010BD102807D14FF02042526E8A431E
:103780004FF020435A6613E0B0F5807F08D12B4AF2
:10379000121D12688A434FF02043C3F8842007E0CB
:1037A000264A243212688A434FF02043C3F8A420EB
:1037B000704770B502460020002300240025102A1F
:1037C00003D14FF02046736E09E0B2F5807F03D13C
:1037D0001A4E361D336802E0184E2436336803EA69
:1037E000010403EAD10514B10DB1012000E000206D
:1037F00070BD102808D14FF02042526E22EAD1024B
:103800004FF020435A6615E0B0F5807F09D10B4A8E
:10381000121D126822EAD1024FF02043C3F884201F
:1038200008E0064A2432126822EAD1024FF020430F
:10383000C3F8A42070470000BFFF0F00800000A065
:1038400010B50446C748844208D10121042000F085
:103850001BFB0021042000F017FB46E0C248844215
:1038600008D10121082000F00FFB0021082000F002
:103870000BFB3AE0BD48844208D10121102000F042
:1038800003FB0021102000F0FFFA2EE0B84884422C
:1038900008D10121202000F0F7FA0021202000F0BB
:1038A000F3FA22E0B348844208D10121402000F01D
:1038B000EBFA0021402000F0E7FA16E0AE4884421F
:1038C00008D10121802000F0DFFA0021802000F0E3
:1038D000DBFA0AE0A948844207D10121801500F0F3
:1038E000D3FA0021A01500F0CFFA10BD10B50121C8
:1038F000084600F0C9FA0021012000F0C5FA10BD09
:10390000F0B500220023002400250026002791F8AE
:1039100003C00CF00F0291F803C01CF0100F03D08D
:1039200091F802C04CEA0202B1F800C01CF0FF0F8F
:1039300031D0066800242BE04FF0010C0CFA04F59E
:10394000B1F800C00CEA0503AB4220D1A5004FF04E
:103950000F0C0CFA05F7BE4302FA05FC4CEA06060A
:1039600091F803C0BCF1280F06D14FF0010C0CFAFE
:1039700004FCC0F814C00AE091F803C0BCF1480F81
:1039800005D14FF0010C0CFA04FCC0F810C0641C07
:10399000082CD1D30660B1F800C0BCF1FF0F34DDB4
:1039A000466800242EE004F1080C4FF0010E0EFAD8
:1039B0000CF5B1F800C00CEA0503AB4221D1A5001B
:1039C0004FF00F0C0CFA05F7BE4302FA05FC4CEA67
:1039D000060691F803C0BCF1280F05D104F1080CCC
:1039E0000EFA0CFEC0F814E091F803C0BCF1480FC9
:1039F00007D104F1080C4FF0010E0EFA0CFEC0F8CE
:103A000010E0641C082CCED34660F0BD4FF6FF7169
:103A10000180022181700421C1707047024600209C
:103A200093680B4201D0012000E00020704701465E
:103A3000886880B2704702460020D3680B4201D0EC
:103A4000012000E0002070470146C86880B270473E
:103A500001617047416170470AB1016100E0416155
:103A60007047C16070474FF480320A4382618161C0
:103A700082618269826970470022414B1A684FF661
:103A800080731A4042EA00120A433D4B1A607047A5
:103A90003C49C8617047F0B500220023002400258E
:103AA00000F00046B6F1004F02D1354EF46901E056
:103AB000334E7468C0F3034582B200F44016B6F585
:103AC000401F08D124F070642D4E766826F0706691
:103AD0002B4F7E6012E000F48016B6F5801F06D1F1
:103AE000032606FA05F39C4344F0706406E0460D95
:103AF000360102FA06F6B44344F0706421B1460D73
:103B0000360102FA06F6344300F00046B6F1004FE3
:103B100002D11B4EF46101E0194E7460F0BD30B566
:103B200000228B071C0F0F2303FA04F2144B0833F7
:103B30008C1053F8244094438D1043F825408C108A
:103B400053F824308C07240F00FA04F423430C4C60
:103B500008348D1044F8253030BD0A49DC31086046
:103B60007047000000080140000C014000100140B7
:103B70000014014000180140001C014000200140D9
:103B80000000014000002042DB48006840F00100D6
:103B9000D949086008464068D8490840D649486075
:103BA00008460068D6490840D349086008460068BE
:103BB00020F4802008600846406820F4FE00486039
:103BC0004FF41F0088607047CB49096821F48031A9
:103BD000C94A11601146096821F480211160B0F5CD
:103BE000803F03D0B0F5802F0ED106E0C2490968AE
:103BF00041F48031C04A116007E0BF49096841F4CF
:103C0000A021BD4A116000E000BF00BF704710B5A1
:103C100001460022002300204A11012A02D1B64C9D
:103C2000236806E0022A02D1B34C236A01E0B24CB9
:103C3000636A01F01F02012494401C4201D001205C
:103C400000E0002010BD70B500240025002600BF54
:103C50003120FFF7DCFF0646641CB4F5A06F01D0ED
:103C6000002EF5D03120FFF7D2FF08B1012500E08A
:103C70000025284670BD00219F4A116821F0F801F7
:103C800041EAC001116070479E49086070470022F8
:103C9000994B5A6822F47C1240EA01031A43964B6E
:103CA0005A6070479749086670470021924A5168E8
:103CB00021F003010143516070478F48406800F0D4
:103CC0000C00704700218C4A516821F0F00101433B
:103CD000516070470021884A516821F4E061014336
:103CE000516070470021844A516821F4605141EAD3
:103CF000C0015160704729B17F4A527A02437E4B1E
:103D00005A7206E07C4A527AC343DBB21A407A4BBD
:103D10005A7270477B49D831086070470021764A53
:103D2000516821F440410143516070470021724ABB
:103D300020321170704A82F82010012802D0042825
:103D40000AD104E001216C4A2032117005E00521FE
:103D5000694A2032117000E000BF00BF70476A4915
:103D6000086070476449096A0143634A11627047F9
:103D7000654944390860704730B5002100220023AE
:103D800000245D4D6D6805F00C0121B1042905D0BA
:103D9000082923D105E05D4D056022E05B4D0560FB
:103DA0001FE0554D6D6805F47012534D6D6805F4B4
:103DB0008033022505EB92421BB9554D55430560F2
:103DC0000BE04D4D6D6815F4003F03D0504D554349
:103DD000056002E04D4D5543056002E04B4D056026
:103DE00000BF00BF444D6D6805F0F0010909494D61
:103DF0006C5C0568E54045603F4D6D6805F4E06129
:103E0000090A444D6C5C4568E54085603A4D6D6833
:103E100005F46051C90A3F4D6C5C4568E540C560DA
:103E2000354D6D6805F44041890B3A4D10356C5C99
:103E3000C568B5FBF4F5056130BD29B12E4A52695C
:103E400002432D4B5A6104E02B4A526982432A4BAC
:103E50005A61704729B1284A92690243264B9A61F8
:103E600004E0254A92698243234B9A61704729B145
:103E7000214AD2690243204BDA6104E01E4AD2692A
:103E800082431D4BDA61704729B11B4AD268024355
:103E9000194BDA6004E0184AD2688243164BDA60A4
:103EA000704729B1144A12690243134B1A6104E0A6
:103EB000114A12698243104B1A6170471249403906
:103EC000086070470F49C86470470B49C871704754
:103ED0000948406A40F080700749486270470146CF
:103EE0000020054A92680A4201D0012000E000202B
:103EF0007047014988727047001002400000FFF8C7
:103F0000FFFFF6FE000042428004424200127A00A7
:103F100000093D002800002010B50446FB488442FB
:103F200009D101218803FFF7AFFF00214FF4804042
:103F3000FFF7AAFF32E0F648844209D10121480484
:103F4000FFF7AFFF00214FF40030FFF7AAFF25E095
:103F5000F048844209D101218804FFF7A2FF002123
:103F60004FF48020FFF79DFF18E0EB48844209D111
:103F70000121C804FFF795FF00214FF40020FFF74F
:103F800090FF0BE0E548844208D101210805FFF7C6
:103F900088FF00214FF48010FFF783FF10BD2DE94B
:103FA000F04786B004460D460026002700BFB14604
:103FB000B246A88900B100BFA246268A4CF6FF701F
:103FC0000640E88806432682A6894EF6F31006408E
:103FD000A88829890843698908430643A681A68AD7
:103FE0004FF6FF400640A8890643A68201A8FFF7C6
:103FF000C3FE5446C548824501D1049F00E0039F9B
:10400000A08910F4004F08D007EBC70000EB0710A1
:1040100029684900B0FBF1F807E007EBC70000EBA7
:10402000071029688900B0FBF1F86420B8FBF0F0B4
:1040300006013009642101FB1089A08910F4004FAA
:1040400009D0322101EBC9006421B0FBF1F000F08E
:104050000700064308E0322101EB09106421B0FBA0
:10406000F1F000F00F000643268106B0BDE8F087AE
:104070004FF41651016000218180C18001810C2123
:10408000418100218181704710B50022028A4FF2E0
:10409000FF031A400B884C8823438C882343CC8829
:1040A00023431A43028210BD002101804180818098
:1040B000C180704721B1828942F40052828104E0BC
:1040C00082894DF6FF731A4082817047F0B5002453
:1040D000002500260023A1F510676A3F00D100BF2C
:1040E0000346C1F3421401F01F05012707FA05F644
:1040F000012C01D10C3304E0022C01D1103300E07B
:1041000014331AB11F6837431F6002E01F68B743BA
:104110001F60F0BD10B51AB1838A0B43838204E09F
:10412000838ACC43A4B22340838210BD028A4FF617
:10413000F0731A400282028A0A430282704782891F
:104140004FF2FF731A40828182890A43828170474D
:1041500021B1828942F00202828104E082894FF615
:10416000FD731A4082817047028A4FF6DF731A404E
:104170000282028A0A430282704721B1028A42F413
:104180008042028204E0028A4BF6FF731A400282E8
:104190007047C1F308028280704701468888C0F3E7
:1041A00008007047818941F0010181817047028BCD
:1041B000D2B20283028B42EA012202837047028B51
:1041C00002F47F420283028B0A430283704721B1CB
:1041D000828A42F02002828204E0828A4FF6DF73F4
:1041E0001A408282704721B1828A42F01002828294
:1041F00004E0828A4FF6EF731A408282704721B141
:10420000828A42F00802828204E0828A4FF6F773C3
:104210001A408282704721B1828942F40042828131
:1042200003E08289C2F30E028281704721B1828A43
:1042300042F40062828204E0828A4FF2FF731A40E5
:1042400082827047828A4FF6FB731A408282828A8A
:104250000A438282704721B1828A42F0020282823E
:1042600004E0828A4FF6FD731A408282704702464C
:104270000020B1F5007F00D100BF13880B4201D0B0
:10428000012000E00020704701F40072B2F5007FC9
:1042900000D100BFCA430280704770B502460023B8
:1042A000002400250020A1F510666A3E00D100BF61
:1042B000C1F3421501F01F04012606FA04F4012D92
:1042C00002D19689344006E0022D02D1168A34408C
:1042D00001E0968A34400B12012606FA03F3168891
:1042E000334014B10BB1012000E0002070BD10B5C7
:1042F00000220023A1F510646A3C00D100BF0A121D
:1043000001249440A3B2DC43048010BD0038014076
:104310000044004000480040004C00400050004075
:104320000021FF4A116801F0380101431160704714
:10433000FB49096821F00801F94A11601146096832
:10434000014311607047F649096821F01001F44AF1
:10435000116011460968014311607047F148F04946
:104360004860F14848607047EE48ED494860EE48C3
:1043700048607047EA48006940F08000E8490861F9
:104380007047E748006940F08000E54908617047E0
:104390000420E349C96801F00101012901D101208C
:1043A0000EE0DF49C96811F0040F01D0022007E0D8
:1043B000DB49C96811F0100F01D0032000E0042090
:1043C000704700B502460423FFF7E2FF034603E00F
:1043D000FFF7DEFF0346521E012B01D1002AF7D161
:1043E00002B90523184600BD30B5044604254FF434
:1043F0003020FFF7E6FF0546042D17D1C8480069B5
:1044000040F00200C649086108464461006940F076
:10441000400008614FF43020FFF7D3FF0546C04845
:10442000006941F6FD710840BD490861284630BD6C
:1044300010B504244FF43020FFF7C3FF0446042CCA
:1044400016D1B748006940F00400B5490861084634
:10445000006940F0400008614FF43020FFF7B1FFE1
:104460000446AF48006941F6FB710840AC49086159
:10447000204610BD00B502460423FFF789FF03461E
:1044800003E0FFF785FF0346521E012B01D1002AEE
:10449000F7D102B90523184600BD10B504244FF426
:1044A0003020FFF7E7FF0446042C16D19C48006932
:1044B00040F004009A4908610846006940F0400055
:1044C00008614FF43020FFF7D5FF04469448006997
:1044D00041F6FB71084092490861204610BD00205A
:1044E0008F49C96911F0020F01D0012000E00020BE
:1044F000704730B5A5240425FFF7F1FF00B1002473
:104500004FF43020FFF75DFF0546042D3AD1854872
:1045100083498860844888600846006940F020002C
:1045200008610846006940F0400008614FF43020FF
:10453000FFF747FF0546042D1BD17948006941F676
:10454000DF710840764908610846006940F01000B4
:10455000086176480480E802FFF733FF0546052D21
:1045600010D06F48006941F6EF7108406C4908614E
:1045700008E0052D06D06A48006941F6EF71084051
:1045800067490861284630BDF0B504460D4604264B
:104590000027F002FFF715FF0646042E22D16048DF
:1045A000006940F001005E4908612580F002FFF7D4
:1045B00008FF0646042E0ED1A71C280C3880F002F6
:1045C000FFF7FFFE06465648006941F6FE710840B7
:1045D0005349086106E05248006941F6FE710840FF
:1045E0004F4908613046F0BD70B504460D460426BB
:1045F000F002FFF7E6FE0646042E11D14848006996
:1046000040F00100464908612580F002FFF7D9FE1D
:1046100006464348006941F6FE710840404908617A
:10462000304670BD70B504460D460426F002FFF713
:10463000C8FE0646042E17D13A48394988603A48E0
:1046400088600846006940F0100008612580F0028B
:10465000FFF7B7FE0646052E06D03148006941F641
:10466000EF7108402E490861304670BD2DE9F043D6
:1046700004464FF6FF752E462F46A8464FF0040914
:10468000E443E5B2C4F30726C4F307474FEA1468CE
:104690004FF40050FFF795FE8146B9F1040F50D159
:1046A00020481F498860204888600846006940F01B
:1046B00010000861FF2D07D01C48083005804FF41A
:1046C0000050FFF77EFE8146B9F1040F09D1FF2E9D
:1046D00007D016480A3006804FF40050FFF771FEED
:1046E0008146B9F1040F09D1FF2F07D00F480C30D4
:1046F00007804FF40050FFF764FE8146B9F1040FC4
:104700000AD1B8F1FF0F07D00948A0F80E884FF47E
:104710000050FFF756FE8146B9F1050F11D009E0B0
:104720000020024023016745AB89EFCD00F8FF1F51
:1047300000F0FF1F6948006941F6EF7108406749C2
:1047400008614846BDE8F08330B5044604254FF4BF
:104750003020FFF736FE0546042D41D160485F4901
:104760008860604888600846006940F02000086161
:104770000846006940F0400008614FF43020FFF720
:1047800020FE0546042D22D15448006941F6DF7110
:104790000840524908610846006940F0100008616D
:1047A0001CB100205049088002E0A5204E49088035
:1047B0004FF43020FFF705FE0546052D10D0474881
:1047C000006941F6EF7108404449086108E0052D91
:1047D00006D04248006941F6DF7108403F49086150
:1047E000284630BDF0B504460D46164604273C4821
:1047F0003A4988603B488860F802FFF7E2FD0746C7
:10480000042F19D13548006940F010003349086180
:1048100046F0F800284320433349891C0880F802F9
:10482000FFF7CFFD0746052F06D02C48006941F65B
:10483000EF710840294908613846F0BD2748C06932
:10484000800870472548006A70470020234909689E
:1048500011F0200F01D0012000E00020704729B1A5
:104860001E4A126902431D4B1A6104E01B4A126979
:1048700082431A4B1A61704701460020012908D172
:10488000164AD26912F0010F01D0012008E0002081
:1048900006E0124AD2680A4201D0012000E000205E
:1048A00070470E49C860704704200C49C96801F080
:1048B0000101012901D101200EE00849C96811F068
:1048C000040F01D0022007E00449C96811F0100F5D
:1048D00001D0032000E004207047000000200240C7
:1048E00023016745AB89EFCD00F8FF1F2DE9F05F8D
:1048F00004460D4616464FF00008A246AB46002778
:104900001FE09BF801004FEA00299BF80000484493
:104910001FFA80F90BF1020B4046411C1FFA81F887
:10492000174921F81090B8F5806F08D14FF00008B2
:104930004FF480625046FEF791FA0AF5006AB81CFF
:1049400087B2B742DDD3B8F1000F04D042460C491C
:104950005046FEF783FABDE8F09F10B50446206884
:1049600008490840B0F1005F08D160680649086056
:104970002068FBF736FC04480068804710BD000043
:1049800000EC00200000FE2F3C00002070470000DB
:104990000FB4054A054910B503AB7944029800F0FD
:1049A00006F910BC5DF814FB2400002089E6FFFF27
:1049B0002DE9F04104460E4600202BE0E168204638
:1049C000884748B3252802D0D4E901211FE0E168D7
:1049D00020460027884705001ED0A5F14100192870
:1049E00002D820354FF4006732462946204627601A
:1049F000FBF7D8FB40B1012801D1361DDEE7F61DDB
:104A000026F007060836D9E7D4E901212846904761
:104A1000206A401C2062D1E7206ABDE8F0810000D6
:104A20002DE9F0418046002610687529414614A5FD
:104A300011D0AFF30080002802DA404211A508E04F
:104A4000D8F800108A0701D50FA502E0490704D560
:104A50000EA5012601E0AFF30080002408F1240731
:104A600004E000F0B7F830313955641C0028F8D163
:104A700033462A4621464046BDE8F04100F03AB8A8
:104A8000000000002D0000002B00000020000000AE
:104A900070B504460D4621461068AFF300802168CA
:104AA000090502D5104A7A4402E00F4A7A440E32D0
:104AB000002104F1240306E000F00F064FEA101075
:104AC000965D5E54491C0028F6D12068002300073B
:104AD00004D5702D02D009B1113202232046BDE861
:104AE000704000F007B80000FE0B000070477047F0
:104AF000704770472DE9F0470D46044692469946A7
:104B000000F124080168880604D5E06921F010014D
:104B1000216000E001200027A84200DD471BA169B9
:104B20007A1902EB0900081AA0612068C00602D4B5
:104B30002046AFF30080002608E0D4E901211AF8EE
:104B400006009047206A401C761C20624E45F4DB2C
:104B50002068C0060AD52046AFF3008006E0D4E9FD
:104B6000012130209047206A401C2062381EA7F1A6
:104B70000107F4DC07E0D4E9012118F805009047AB
:104B8000206A401C2062281EA5F10105F3DC2046A6
:104B9000AFF3008021680220090600D40120BDE89F
:104BA000F087000001694A1C02610878704710B55F
:104BB0000C46194690B0CDE9024200220692044A02
:104BC0007A44CDE9042001A8FFF7F2FE10B010BD31
:104BD000E1FFFFFF4FF00A01B0FBF1F202FB110110
:104BE00010467047754600F029F8AE460500694644
:104BF000534620F00700854618B020B5FEF79AFA14
:104C0000BDE820404FF000064FF000074FF00008CD
:104C10004FF0000B21F00701AC46ACE8C009ACE84E
:104C2000C009ACE8C009ACE8C0098D46704704462D
:104C3000AFF300802046FBF7CCFA00000048704735
:104C40004C080020000000000000000000000000F0
:104C5000000000003F4000000000000000003000A5
:104C6000400030004000000009000BC03D000BC0B8
:104C70003D00090018C024407FE022403180000040
:104C8000180024C01B000D803240018003801C40AE
:104C900027401C800740004010006000000000001A
:104CA000000000000000000000001F8020404020A5
:104CB0000000402020401F80000000000900060086
:104CC0001F80060009000000040004003F8004006B
:104CD0000400000000100060000000000000000060
:104CE0000400040004000400040000000000004070
:104CF0000000000000000000002001C00600380095
:104D0000400000001F802040204020401F80000005
:104D1000000010403FC000400000000018C02140CB
:104D200022402440184000001080204024402440AD
:104D30001B80000002000D0011003FC00140000078
:104D40003C80244024402440238000001F802440D5
:104D500024403440038000003000200027C0380089
:104D6000200000001B802440244024401B800000C1
:104D70001C0022C0224022401F80000000000000D2
:104D80000840000000000000000000000460000077
:104D900000000000000004000A00110020804040D4
:104DA0000900090009000900090000000000404056
:104DB000208011000A000400180020002340240075
:104DC000180000001F802040274029401F4000009D
:104DD000004007C039000F0001C0004020403FC024
:104DE000244024401B8000001F80204020402040A1
:104DF0003080000020403FC0204020401F80000045
:104E000020403FC024402E4030C0000020403FC022
:104E100024402E00300000000F001080204022406F
:104E20003380020020403FC0040004003FC0204007
:104E3000204020403FC02040204000000060202053
:104E400020203FC02000200020403FC024400B0015
:104E500030C0204020403FC020400040004000C003
:104E60003FC03C0003C03C003FC0000020403FC0AA
:104E70000C4023003FC020001F80204020402040E5
:104E80001F80000020403FC0244024001800000084
:104E90001F802140214020E01FA0000020403FC093
:104EA0002440260019C0004018C02440244022405D
:104EB00031800000300020403FC020403000000022
:104EC00020003F80004000403F80200020003E0046
:104ED00001C0070038002000380007C03C0007C0B0
:104EE00038000000204039C0060039C020400000D2
:104EF0002000384007C0384020000000304021C06A
:104F00002640384020C00000000000007FE0402024
:104F100040200000000070000C00038000400000F2
:104F20000000402040207FE0000000000000200042
:104F300040002000000000000010001000100010D1
:104F40000010001000000000400000000000000001
:104F5000000002800540054003C0004020003FC023
:104F6000044004400380000000000380044004402B
:104F70000640000000000380044024403FC0004081
:104F8000000003800540054003400000000004408D
:104F90001FC0244024402000000002E005500550BE
:104FA0000650042020403FC00440040003C00040DD
:104FB0000000044027C00040000000000010001066
:104FC000041027E00000000020403FC0014007001F
:104FD00004C00440204020403FC00040004000008A
:104FE00007C0040007C0040003C00000044007C05D
:104FF0000440040003C0004000000380044004405B
:1050000003800000041007F00450044003800000F7
:10501000000003800440045007F00010044007C063
:105020000240040004000000000006400540054066
:1050300004C00000000004001F8004400040000085
:10504000040007800040044007C00040040007003F
:1050500004C0018006000400060001C0070001C072
:1050600006000000044006C0010006C00440000025
:105070000410071004E00180060004000000044052
:1050800005C00640044000000000000004007BE072
:1050900040200000000000000000FFF000000000C1
:1050A000000040207BE00400000000004000800081
:1050B0004000200020004000000000000000000030
:1050C00000000000000000000000000000001FCCF5
:1050D000000C00000000000000000800300060002C
:1050E0000800300060000000022003FC1E200220A7
:1050F00003FC1E200220000000000E1811043FFFD8
:1051000010840C78000000000F0010840F3800C0DD
:10511000077818840078000000780F8410C41124E8
:105120000E9800E400840008080068007000000089
:10513000000000000000000000000000000007E088
:105140001818200440020000000040022004181833
:1051500007E00000000000000240024001800FF064
:1051600001800240024000000080008000800FF8B3
:1051700000800080008000000001000D000E000093
:10518000000000000000000000000080008000809F
:1051900000800080008000800000000C000C0000F7
:1051A0000000000000000000000000060018006081
:1051B0000180060018002000000007F00808100415
:1051C0001004080807F000000000080408041FFC91
:1051D000000400040000000000000E0C1014102455
:1051E000104411840E0C000000000C18100411046F
:1051F000110412880C700000000000E00320042459
:1052000008241FFC0024000000001F9810841104D3
:105210001104108810700000000007F008881104C5
:10522000110418880070000000001C00100010FC21
:1052300013001C001000000000000E381144108400
:10524000108411440E38000000000700088C104440
:105250001044088807F00000000000000000030C64
:10526000030C000000000000000000000001010627
:10527000000000000000000000000080014002204B
:10528000041008081004000002200220022002205E
:105290000220022002200000000010040808041070
:1052A000022001400080000000000E001200100CDF
:1052B000106C10800F00000003E00C1813E414249D
:1052C00017C4082807D000000004003C03C41C4099
:1052D000074000E4001C000410041FFC110411042A
:1052E00011040E880070000003E00C181004100474
:1052F000100410081C10000010041FFC10041004FF
:105300001004080807F0000010041FFC1104110429
:1053100017C410040818000010041FFC1104110029
:1053200017C010000800000003E00C18100410045F
:1053300010441C780040000010041FFC1084008002
:10534000008010841FFC10040000100410041FFCD7
:1053500010041004000000000003000110011001FF
:105360001FFE10001000000010041FFC1104038039
:105370001464181C1004000010041FFC1004000426
:1053800000040004000C000010041FFC1F0000FCBF
:105390001F001FFC1004000010041FFC0C0403007D
:1053A00000E010181FFC100007F00808100410049B
:1053B0001004080807F0000010041FFC108410807F
:1053C000108010800F00000007F00818102410242F
:1053D000101C080A07F2000010041FFC1104110041
:1053E00011C011300E0C000400000E1C11041084BA
:1053F000108410441C3800001800100010041FFC1A
:10540000100410001800000010001FF81004000421
:10541000000410041FF8100010001E0011E0001C12
:10542000007013801C0010001FC0103C00E01F0023
:1054300000E0103C1FC000001004180C163401C01E
:1054400001C01634180C100410001C00130400FCDA
:1054500013041C00100000000804101C10641084C9
:1054600013041C04101800000000000000007FFE60
:105470004002400240020000000030000C000380A7
:105480000060001C000300000000400240024002D7
:105490007FFE00000000000000000000200040002F
:1054A0004000400020000000000100010001000158
:1054B0000001000100010001000040004000200048
:1054C00000000000000000000000009801240144DA
:1054D0000144014400FC000410001FFC008801048A
:1054E00001040088007000000000007000880104C2
:1054F000010401040088000000000070008801041D
:10550000010411081FFC0004000000F801440144DC
:105510000144014400C800000000010401040FFC24
:105520001104110411001800000000D601290129FE
:10553000012901C90106000010041FFC00840100BC
:105540000100010400FC000400000104190419FC1E
:10555000000400040000000000000003000101013D
:10556000190119FE0000000010041FFC0024004077
:1055700001B4010C010400000000100410041FFC21
:105580000004000400000000010401FC010401000B
:1055900001FC0104010000FC010401FC0084010085
:1055A0000100010400FC0004000000F801040104F3
:1055B0000104010400F80000010101FF008501045D
:1055C00001040088007000000000007000880104E1
:1055D0000104010501FF00010104010401FC008434
:1055E0000104010001800000000000CC012401241E
:1055F000012401240198000000000100010007F8C7
:105600000104010400000000010001F8000400048E
:105610000004010801FC0004010001800170000C7D
:10562000001001600180010001F0010C003001C098
:105630000030010C01F0010000000104018C007435
:105640000170018C01040000010101810171000E53
:10565000001801600180010000000184010C013488
:1056600001440184010C0000000000000000000063
:1056700001003EFC4002400200000000000000006B
:10568000FFFF0000000000000000400240023EFC5E
:1056900001000000000000000000600080008000A9
:1056A000400040002000200030313233343536379E
:1056B0003839414243444546403058003031323356
:1056C0003435363738396162636465664030780056
:1056D000F056000800000020400000006C010008A7
:1056E0003057000840000020C0F300008801000887
:1056F00000A24A04000000000000000001020304B0
:105700000607080901000000FFFF0000000000007C
:10571000000000000000000000000000010203047F
:10572000010203040607080902040608000000003D
:0400000508000131BD
:00000001FF
